:100000000C9414010C943C010C943C010C943C01A4
:100010000C943C010C943C010C943C010C943C016C
:100020000C943C010C943C010C943C010C943C015C
:100030000C94E6130C943C010C943C010C941013AA
:100040000C94C6120C943C010C9494120C946E12F5
:100050000C943C010C943C010C943C010C943C012C
:100060000C943C010C943C016364696E6F70737571
:1000700078585B003C6D496E76616C696420506114
:10008000636B65743E003E0053455249414C20006D
:100090003A20003C6E003E0030393A34373A313075
:1000A0000020004D61722031322032303230002089
:1000B0002F2000312E332E302B68616261003A20F0
:1000C000562D0041524455494E4F204D4F544F52EA
:1000D00020534849454C4400202F2000554E4F00E6
:1000E0003C694443432B2B20424153452053544108
:1000F00054494F4E20464F522041524455494E4F8D
:1001000020003E00200020003C54003E0020007CE7
:10011000007C003C72003E00200020007C007C003F
:100120003C72003E0020007C007C003C72003E00DF
:100130003C23000900465F000900090009003A0954
:10014000005000536C6F743A095265670942697434
:1001500073000900465F000900090009003A090020
:100160004D00536C6F743A095265670942697473A4
:10017000003E0020002000200020003C6620000AF5
:10018000456E746572696E6720446961676E6F734E
:10019000746963204D6F64652E2E2E0020303E0062
:1001A00020313E0020003C54003C70313E003C7049
:1001B000303E003E003C61003C70303E003C7031FF
:1001C0003E003C70313E003C70313E0000000000BB
:1001D000240027002A0000000000250028002B0032
:1001E0000000000023002600290004040404040485
:1001F00004040202020202020303030303030102D6
:1002000004081020408001020408102001020408A4
:100210001020000000080002010000030407000095
:100220000000000000000A1511241FBECFEFD8E027
:10023000DEBFCDBF11E0A0E0B1E0E2E6F1E402C034
:1002400005900D92AE3CB107D9F722E0AEECB1E0DB
:1002500001C01D92AE3EB207E1F711E0C4E1D1E06A
:1002600004C02197FE010E949A1AC331D107C9F731
:100270000E9469150C94AF200C940000AF92BF92BD
:10028000CF92DF92EF92FF920F93CF93DF93FC0117
:10029000CB01EA01608171816F5F7F4F0E94501A2C
:1002A000BC01892B09F451C085859685478150850D
:1002B000A585B685A417B507E0F1A189B2894A17CB
:1002C0005B07A1F581899289A185B285AB01440FB5
:1002D000551FA40FB51F0D90BC91A02DAB2B59F548
:1002E000128A118AA185B285A40FB51F8D939C93A4
:1002F000A185B285CB01880F991FA80FB91FAD90BA
:10030000BC90AE01420F531FDE01FD90CD01DA011A
:10031000FC927C01EC1AFD0AE216F306DCF4DC0127
:10032000ED90CD01DA01FC90FE24F2CF465F5F4FE5
:10033000BFCF0A96C9CFA185B285A40FB51F0D9076
:10034000BC91A02DB28BA18BCDCF87859089892BB5
:10035000E1F7CECF2F5F3F4F8281882309F461C040
:10036000263031050CF05DC08FEFD5018C9391E004
:10037000E92EF12CA5014E0D5F1D8FEFDA018C9354
:100380008881881F8827881F845011968C93119725
:100390008881880F12968C931297898113968C937B
:1003A0001397CA80D12CD594C7941496CC92A701E8
:1003B0004B5F5F4F4A0D5B1D8A8187958827879524
:1003C000DA018C932330310571F580648C93990F99
:1003D000990F990F965DD50119969C93D5011896A2
:1003E0008C9118978E7F18968C93672B09F063C0B9
:1003F000B08AA786048B25853685878590898217E4
:10040000930708F066C08585968596878587DF9176
:10041000CF910F91FF90EF90DF90CF90BF90AF9072
:10042000089590E0A5CFDB80D694D6948D0D8C9363
:100430006701B6E0CB0ED11CCA0CDB1C4B81429588
:10044000440F440F407CD6014C932430310539F4DD
:1004500040624C93990F990F990F9D5CBCCF8C8192
:10046000869586958695480F4C93B7E0EB0EF11C68
:10047000EA0CFB1C4C814295440F407ED7014C9303
:100480002530310539F440614C93990F990F990F3C
:10049000945CA1CF8D8182958F70480F4C938D8194
:1004A0008295807F8860D50118968C93189785E493
:1004B00019968C9393CF81899289892B29F0C189D0
:1004C000D28988858160888787859089892BE1F723
:1004D0008FCF8785908999CFAF92BF92CF92DF92CD
:1004E000EF92FF920F931F93CF93DF936C017B01E9
:1004F0008B01040F151FEB015E01AE18BF08C0177A
:10050000D10759F06991D601ED91FC910190F081EC
:10051000E02DC6010995892B79F7C501DF91CF91AF
:100520001F910F91FF90EF90DF90CF90BF90AF9011
:100530000895FC01538D448D252F30E0842F90E0E9
:10054000821B930B541710F0CF96089501970895CE
:10055000FC01918D828D981761F0A28DAE0FBF2F97
:10056000B11D5D968C91928D9F5F9F73928F90E0ED
:1005700008958FEF9FEF0895FC01918D828D98175C
:1005800031F0828DE80FF11D858D90E008958FEF99
:100590009FEF0895FC01918D228D892F90E0805C62
:1005A0009F4F821B91098F739927089589E092E0EC
:1005B0000E94CA0221E0892B09F420E0822F0895CD
:1005C00080E090E0892B29F00E94D60281110C94E2
:1005D00000000895FC01A48DA80FB92FB11DA35AE6
:1005E000BF4F2C91848D90E001968F739927848F53
:1005F000A689B7892C93A089B1898C918370806476
:100600008C93938D848D981306C00288F389E02D16
:1006100080818F7D80830895EF92FF920F931F93C7
:10062000CF93DF93EC0181E0888F9B8D8C8D9813A5
:100630001AC0E889F989808185FF15C09FB7F894B1
:10064000EE89FF896083E889F989808183708064FD
:1006500080839FBF81E090E0DF91CF911F910F9148
:10066000FF90EF900895F62E0B8D10E00F5F1F4F57
:100670000F731127E02E8C8D8E110CC00FB607FC66
:10068000FACFE889F989808185FFF5CFCE010E94F4
:10069000EA02F1CFEB8DEC0FFD2FF11DE35AFF4F76
:1006A000F0829FB7F8940B8FEA89FB898081806282
:1006B000CFCF0F931F93CF93DF938C01D0E0C0E097
:1006C000F801EC0FFD1F6491662341F089E092E090
:1006D0000E940C03892B11F02196F2CFCE01DF91FD
:1006E000CF911F910F910895CF93DF93EC01888DE7
:1006F0008823B9F0AA89BB89E889F9898C9185FD9D
:1007000003C0808186FD0DC00FB607FCF7CF8C912A
:1007100085FFF2CF808185FFEDCFCE010E94EA02F6
:10072000E9CFDF91CF910895833081F028F48130B3
:1007300099F08230A9F008958730A9F08830C9F087
:100740008430B1F4809180008F7D03C0809180005F
:100750008F7780938000089584B58F7784BD089546
:1007600084B58F7DFBCF8091B0008F778093B000F0
:1007700008958091B0008F7DF9CFCF93DF93282F1C
:1007800030E0F901EE5EFD4F8491F901E250FE4F39
:10079000D491F901E651FE4FC491CC23A1F081110F
:1007A0000E949403EC2FF0E0EE0FFF1FE052FE4F8B
:1007B000A591B491EC91ED2381E090E009F480E003
:1007C000DF91CF91089580E090E0FACF1F93CF930F
:1007D000DF93282F30E0F901EE5EFD4F8491F9019F
:1007E000E250FE4FD491F901E651FE4FC491CC2363
:1007F000A9F0162F81110E949403EC2FF0E0EE0F68
:10080000FF1FEA52FE4FA591B4918FB7F894EC9177
:10081000111108C0D095DE23DC938FBFDF91CF91FB
:100820001F910895DE2BF8CFCF93DF9390E0FC016A
:10083000E250FE4F249186519E4FFC018491882303
:10084000D1F090E0880F991FFC01E453FE4FA59171
:10085000B491FC01EA52FE4FC591D49161110EC0D2
:100860009FB7F8948C91E22FE0958E238C9328818A
:10087000E223E8839FBFDF91CF9108958FB7F8946B
:10088000EC91E22BEC938FBFF6CF8E3008F08E50B8
:100890008770806480937C0080917A00806480936C
:1008A0007A0080917A0086FDFCCF8091780090914B
:1008B000790008950F931F93CF93DF9304E610E020
:1008C000D0E0C0E08FE00E944504C80FD91F01505E
:1008D0001109C1F7CE0164E670E00E94501ACB0105
:1008E000DF91CF911F910F9108953FB7F8948091B8
:1008F000D6019091D701A091D801B091D90126B528
:10090000A89B05C02F3F19F00196A11DB11D3FBF47
:10091000BA2FA92F982F8827BC01CD01620F711D16
:10092000811D911D42E0660F771F881F991F4A9510
:10093000D1F708958F929F92AF92BF92EF92FF925C
:100940000F931F93CF93DF937C018BE00E94BD0335
:10095000C3E0D0E0892B31F461E08BE00E94E60334
:10096000C4E1D1E0F70183809480A580B68001E0E6
:1009700010E022E030E042ED51E061E070E0C701BC
:100980000E943E018C2F90E0B0E0A0E0F70143818F
:10099000548165817681481959096A097B0948178C
:1009A00059076A077B0790F38D2FDF91CF911F9135
:1009B0000F91FF90EF90BF90AF909F908F90089510
:1009C0002F923F924F925F926F927F928F929F925F
:1009D000AF92BF92CF92DF92EF92FF920F931F934D
:1009E000CF93DF9300D000D000D0CDB7DEB76C013D
:1009F0001B01FC0183809480A580B680EE24E394E3
:100A00001E821D82F12C10E08FE00E944504BC0183
:100A100062197309072E000C880B990B0E942E197E
:100A200023E333E343E35FE30E94E31969837A83BB
:100A30008B839C832D813E81B901330F880B990BE9
:100A40000E942E192AE939E949E95EE30E94E31977
:100A50009B01AC0169817A818B819C810E94851800
:100A60000E94F6187E836D83113021F16F3171057C
:100A70002CF00E9475042B013C0111E0F11049C0DB
:100A8000F60183819481A581B68188199909AA0903
:100A9000BB090997A105B10508F4B6CF01E010E044
:100AA00022E030E042ED51E061E070E0C6010E94DA
:100AB0003E013FC0EE2011F3ED81FE811E2D7E9799
:100AC000ECF60E94750400ED1AE82FEF3FEF0419D1
:100AD000150926093709DC01CB01800F911FA21FE0
:100AE000B31F10E081399546A105B10538F601E044
:100AF00010E022E030E042ED51E061E070E0C6013C
:100B00000E943E01F60183809480A580B6801E2D50
:100B1000E12CF60183819481A581B6818819990918
:100B2000AA09BB09FF24F3940397A105B10508F4B2
:100B3000A7CF8F2D26960FB6F894DEBF0FBECDBF80
:100B4000DF91CF911F910F91FF90EF90DF90CF90A9
:100B5000BF90AF909F908F907F906F905F904F90DD
:100B60003F902F900895FC0101900020E9F7319704
:100B7000AF01481B590BBC0189E092E00C946C0258
:100B80008F929F92AF92BF920F931F93CF93DF9359
:100B9000CDB7DEB7A1970FB6F894DEBF0FBECDBFBD
:100BA00019A2423008F44AE08E010F5D1F4F842ED7
:100BB000912CB12CA12CA50194010E94641AE62F5E
:100BC000B901CA01EA30F4F4E05DD801EE938D0179
:100BD000232B242B252B79F790E080E0109719F038
:100BE000CD010E94B305A1960FB6F894DEBF0FBEEB
:100BF000CDBFDF91CF911F910F91BF90AF909F908C
:100C00008F900895E95CE1CFCF92DF92EF92FF924F
:100C1000CF93DF936C01990FEE08FF086A307105DE
:100C2000E1F44AE0F7FE1AC06DE289E092E00E942A
:100C30000C03EC0166277727CB016C197D098E091F
:100C40009F094AE00E94C0058C0F9D1FDF91CF9144
:100C5000FF90EF90DF90CF900895462FC701B60127
:100C6000DF91CF91FF90EF90DF90CF900C94C00573
:100C700080EE90E00E9459038CED90E00E945903B1
:100C800088ED90E00E94590383EC90E00E945903A4
:100C90008EEB90E00E94590383EB90E00E94590391
:100CA0008FEA90E00E94590383EA90E00E94590382
:100CB00081EA90E00E94590388E990E00E9459037C
:100CC00086E990E00E94590383E990E00E9459036D
:100CD0006AE070E090E080E00E94040680E990E025
:100CE0000E94590388E890E00E94590386E890E04A
:100CF0000C945903462F682F70E090E080E00C942C
:100D0000C005009711F00C94B30590E080E00895C1
:100D100083E291E00C9481060F931F93CF93DF93AE
:100D20008C01C091D001D091D101209741F483E290
:100D300091E0DF91CF911F910F910C94810687E292
:100D400091E00E9481066AE070E08B819C810E94A4
:100D500004060130110591F48CE891E00E948106AF
:100D60006AE070E08D810E947A068CE891E00E9432
:100D700081066AE070E08E810E947A068A81811184
:100D80000EC08AE291E00E9481060F80D885C02DB6
:100D90002097A9F6DF91CF911F910F9108958EE2D0
:100DA00091E0F1CFCF92DF92EF92FF920F931F93DA
:100DB000CF93DF93EC018A810E9445048C0124EAE1
:100DC00030E74DE75FE36C817D818E819F810E94DA
:100DD000E3196B017C01B801110F880B990B0E947C
:100DE0002E192AE037ED43E25CE30E94E3199B01F0
:100DF000AC01C701B6010E9485186C837D838E8388
:100E00009F8320E030E046E953E40E94DE19181683
:100E100084F460E088810E94E60388859985DF91EB
:100E2000CF911F910F91FF90EF90DF90CF900C9496
:100E30008106DF91CF911F910F91FF90EF90DF908E
:100E4000CF9008950F931F93CF93DF938C01C091A0
:100E5000CE01D091CF01209741F483E291E0DF9160
:100E6000CF911F910F910C94810682E391E00E9433
:100E700081066AE070E08C819D810E940406013049
:100E8000110599F48CE891E00E9481066AE070E017
:100E90008E819F810E9404068CE891E00E94810669
:100EA0006AE070E08B810E947A068A8181110EC00F
:100EB0008AE291E00E9481060884D985C02D20979E
:100EC000A1F6DF91CF911F910F9108958EE291E0ED
:100ED000F1CFCF93DF9387E391E00E94B305EC015C
:100EE00085E391E00E94B3058C0F9D1FDF91CF91A8
:100EF0000895CF93DF930E945903EC0185E391E0BD
:100F00000E94B3058C0F9D1FDF91CF910895CF9262
:100F1000DF92EF92FF920F931F93CF93DF93CDB7A2
:100F2000DEB728970FB6F894DEBF0FBECDBF6C01B9
:100F3000CE0105969F938F9301979F938F9301976F
:100F40009F938F9301979F938F93AE014F5F5F4F56
:100F50007A015F934F9305969F938F9388E391E077
:100F60009F938F937F936F930E94E61A9C01215069
:100F7000310903970FB6F894DEBF0FBECDBF0497BB
:100F800098F084E790E00E94590328960FB6F894F1
:100F9000DEBF0FBECDBFDF91CF911F910F91FF90AC
:100FA000EF90DF90CF9008956F81788510E000E09A
:100FB000A701C6010E943E01E8CF2F923F924F92B7
:100FC0005F927F928F929F92AF92BF92CF92DF9269
:100FD000EF92FF920F931F93CF93DF93CDB7DEB7BE
:100FE0006E970FB6F894DEBF0FBECDBFDC012C911B
:100FF000213509F46FC50CF035C1233311F40C947D
:1010000084109CF5203311F40C948B1004F52032DD
:1010100011F40C94D611233211F40C94DA116E965B
:101020000FB6F894DEBF0FBECDBFDF91CF911F91F9
:101030000F91FF90EF90DF90CF90BF90AF909F9077
:101040008F907F905F904F903F902F900895213325
:1010500011F40C947610223311F761E083E00E94C2
:10106000E60382EC91E00C948010263411F40C9489
:10107000AF100CF04DC0223409F4BCC6243479F60C
:101080008FE791E00E9479070E9475044B015C0193
:1010900068EEC62E63E0D62EE12CF12C0E9475047A
:1010A000681979098A099B09683E73408105910591
:1010B000A8F351E0C51AD108E108F10888EE880EBE
:1010C00083E0981EA11CB11CC114D104E104F104F9
:1010D00029F7809181008B7F80938100809181002E
:1010E000826080938100809181008E7F8093810057
:1010F00085B5846085BD85B58D7F85BD85B58E7FC1
:1011000085BD80E88093610088E08093610087CF8F
:101110002D3411F40C949C10203511F40C94A7106C
:101120002C3409F07CCF0E94690783E691E00E948D
:101130008106E091DE01F091DF01838594856AE00C
:1011400070E00E94040680E791E00E948106E09131
:10115000DE01F091DF01818992896AE070E00E94EE
:1011600004068EE791E00E948106E091DE01F09195
:10117000DF01858596856AE070E00E94040685E3BC
:1011800091E00E94B30582E691E00E947907E09128
:10119000DE01F091DF01078110855DECE52E5CEC4E
:1011A000F52EC090DE01D090DF01F6018585968591
:1011B0008017910710F40C94241180E691E00E94AE
:1011C0005903D60117968D919C91F801E81BF90BF4
:1011D000CF01959587956AE070E09C012E9DC00136
:1011E0002F9D900D3E9D900D11240E9404068DE5CB
:1011F00091E00E9459036AE070E0C8010E94040671
:101200008BE591E00E9459036AE070E0D8011996DD
:101210008C910E947A0689E591E00E945903680149
:10122000F8018185982F977021E030E011F430E0CB
:1012300020E0869586958695820F932F911D9601C5
:10124000201B310B281739070CF0E8C760E170E06C
:10125000D6018D916D010E947A0687E591E00E948A
:101260005903DECF213609F4F6C10CF068C02435ED
:1012700009F44CC2ACF5223509F46FC6233509F0E8
:10128000CECE9E012F5F3F4F3F932F932C5E3F4F5B
:101290003F932F932E5F3F4F3F932F9320E931E0F1
:1012A0003F932F9301969F938F930E94E61A0FB658
:1012B000F894DEBF0FBECDBF8130910509F4C2C3E3
:1012C0000CF064C3019609F0AACE009107021091B8
:1012D00008020115110509F0D1C30E9488069FCEAE
:1012E000273509F4EEC42A3509F099CE9E012F5F07
:1012F0003F4F3F932F932C5E3F4F3F932F932E5F93
:101300003F4F3F932F9320E931E03F932F93019676
:101310009F938F930E94E61A0FB6F894DEBF0FBE1C
:10132000CDBF8130910509F415C30CF099C2019627
:1013300009F075CE81E090E00E948C0670CE2636D2
:1013400009F42FC1E4F4223609F446C4233609F027
:1013500066CE85EB91E00E945903E091DA01F091AD
:10136000DB0164817581868197810E94F618CB012B
:101370006AE070E00E94040683EB91E0C1C6243766
:1013800009F459C0273709F4CCC3233709F047CEF5
:101390008BE00E94BD03892B09F0C8C68EEA91E05C
:1013A0000E94590301E010E0E091DE01F091DF01BD
:1013B0000688F789E02DE00FF11F8081882369F10D
:1013C00086EA91E00E9459036AE070E0C8010E9439
:1013D000040684EA91E00E945903E091DE01F09155
:1013E000DF010688F789E02DE00FF11F80818F77FC
:1013F0006AE070E090E00E940406E091DE01F09166
:10140000DF010688F789E02DE00FF11F808187FF5B
:1014100090C680EA91E00E9459030F5F1F4F053686
:10142000110511F60E94380690E080E00E94220724
:1014300090E080E081CFE090DE01F090DF019E013E
:101440002B5E3F4F3F932F932E5F3F4F3F932F9342
:101450002E5F3F4F3F932F932E5F3F4F3F932F932E
:1014600027E531E03F932F9301969F938F930E943E
:10147000E61A0FB6F894DEBF0FBECDBF049709F091
:10148000CECD6B8D7C8D161617060CF0C8CDD7010E
:101490008D919C91861797070CF4C1CD298D3A8DBB
:1014A000E0E02038310524F0832F806C8983E1E06F
:1014B0008F89988D8F37910524F08EE790E0988F73
:1014C0008F8B4D895E89417055275E8B4D8BA1E0D6
:1014D000B0E0AC0FBD1FAE0FB11D2C93A1E0AE0F5D
:1014E00021E030E02C0F3D1F2A0F311DD9018FE381
:1014F0008C93AF89B88D23E02E0FEE5F81E090E0F2
:101500008C0F9D1F8E0F911DFC0181E0B7FD45C022
:101510001A161B060CF080E08A0F47954427479562
:10152000840F808330E010E000E0AE014F5F5F4F3A
:10153000C7010E943E0188E091E00E9459036AE0E1
:1015400070E08B8D9C8D0E94040686E091E00E94E5
:1015500059036AE070E08F89988D0E94040684E048
:1015600091E00E9459036AE070E08D899E890E9493
:10157000040682E091E00E945903D7015696ED914E
:10158000FC918B8D9C8DE80FF91F8D89879588279D
:1015900087959F89890F808342CD8083188E1F8A0B
:1015A000C1CFE090DE01F090DF019E012B5E3F4F46
:1015B0003F932F932E5F3F4F3F932F932E5F3F4FCD
:1015C0003F932F9320E931E03F932F9301969F9310
:1015D0008F930E94E61ABC010FB6F894DEBF0FBECF
:1015E000CDBF02970CF41BCD498D5A8D20E04038B9
:1015F000510524F0852F806C898321E0E1E0F0E043
:10160000EC0FFD1FE20FF11D40839F89E2E0E20F26
:10161000A1E0A20F41E050E04C0F5D1F4A0F511DA9
:10162000DA016230710541F49F7390689C932E2F0C
:1016300030E004E010E061C091709E6D9C9381E009
:1016400090E08C0F9D1F8E0F911DFC018D89808372
:10165000E3E0E20FECCFE090DE01F090DF019E01CD
:101660002B5E3F4F3F932F932E5F3F4F3F932F9320
:101670002E5F3F4F3F932F9320E931E03F932F930D
:1016800001969F938F930E94E61A0FB6F894DEBFDF
:101690000FBECDBF039709F0C2CC498D3A8D842F80
:1016A000932F60E470E00E94501A805889838F89DC
:1016B000988D64E070E00E94501A282F220F8D89C7
:1016C0009E8962E070E00E94501A280F842F932FA9
:1016D00097FDCF96A6E095958795AA95E1F768E0E6
:1016E00070E00E94501A8295807F280F88EF28278B
:1016F0002A8304E010E022E030E0AE014F5F5F4F4C
:1017000070E060E0C7010E943E0189CC9E012B5E23
:101710003F4F3F932F932E5F3F4F3F932F932E5F6B
:101720003F4F3F932F9320E931E03F932F93019652
:101730009F938F930E94E61A0FB6F894DEBF0FBEF8
:10174000CDBF8130910509F46FC044F4019609F0D2
:1017500066CC81E090E00E94220761CC8230910546
:1017600001F1039709F05BCCBD88CF88D88CE98C58
:10177000FA8C0091CE011091CF01F80101151105ED
:1017800061F56AE070E081E090E00E94A01AFC013F
:101790009093CF018093CE013097E9F50E9488069F
:1017A0003ECC898D9A8D0091CE011091CF0101150B
:1017B000110509F476C0D80114962D913C91159726
:1017C0008217930709F408C618960D911C91EFCF64
:1017D0008EE291E00E94810622CC84819581E816F8
:1017E000F906C9F00084F185E02D3097B1F7F801D2
:1017F00080859185009769F46AE070E081E090E06F
:101800000E94A01AFC01D80119969C938E931897F8
:10181000C3CF8C01ECCFF582E482D782C682B3823B
:10182000128280E591E0D6CF498D5A8D2091CE016C
:101830003091CF01F901309709F408C664817581B0
:10184000808591854617570709F404C66F01FC018E
:10185000F2CFD60118968C93189719969C9302C6CE
:101860008230910509F1039709F0D9CBE980FA801C
:10187000BD888F88988CC090D001D090D10186010E
:10188000C114D10439F569E070E081E090E00E9474
:10189000A01A8C019093D1018093D00101151105FC
:1018A000B9F583E291E096CF8F89988D0091D001B0
:1018B0001091D10101151105A1F3D80113962D91B5
:1018C0003C9114978217930709F4D0C517960D9190
:1018D0001C91F0CFF8018381948188169906C1F09C
:1018E0000781108501151105A9F7D60117968D916D
:1018F0009C91009759F469E070E081E090E00E94CB
:10190000A01A8C01F60190878783C8CF6C01EDCFB8
:10191000D80114969C928E9213971596BC921597A7
:101920001696EC9280E0E1FE06C0C701959587957A
:10193000959587958170F80182836E2D6170682777
:101940008B2D0E94E60361E0D80115968C910E94D0
:10195000140467CF4F89588D2091D0013091D10167
:10196000F901309709F4A9C5638174818781908555
:101970004617570709F498C57F01FC01F2CFD7013C
:1019800017968C93179718969C936CC58230910587
:1019900009F487CF039709F042CBC980DA80FD882C
:1019A000AF88B88C0091070210910802F801011568
:1019B000110549F56BE070E081E090E00E94A01A0B
:1019C000FC019093080280930702309709F469CFD5
:1019D000B182A082F28281E0C114D10409F480E0D6
:1019E0008383148280E090E0A0E8BFE38583968340
:1019F000A783B08760E08F2D0E9414046C2D8F2D7B
:101A00000E94E6030ECF80819181A816B90601F3EA
:101A10000184F285E02D3097B1F7D80119968D91A8
:101A20009C91009769F46BE070E081E090E00E9487
:101A3000A01AFC01D8011A969C938E931997C5CFD2
:101A40008C01EBCF4F89588D20910702309108020D
:101A5000F901309709F435C56081718181859285DE
:101A60004617570709F431C58F01FC01F2CFD801A1
:101A700019968C9319971A969C93F4C48AE491E072
:101A80000E9481066AE070E0F801808191810E94E5
:101A900004068CE891E00E9481066AE070E0D801BB
:101AA00012968C910E947A068CE891E00E94810641
:101AB0006AE070E0F80183810E947A068CE291E08E
:101AC0000E948106D80119960D911C9101151105EE
:101AD000A9F6A5CA00910702109108020115110587
:101AE00019F40E9488069BCAF80184818823B1F00A
:101AF0008AE491E00E9481066AE070E0D8018D914D
:101B00009C910E9404068CE291E00E948106F801FB
:101B1000018512850115110539F781CA8DE491E01F
:101B2000E9CFE090DE01F090DF019E012B5E3F4F98
:101B30003F932F932E5F3F4F3F932F932E5F3F4F47
:101B40003F932F9320E931E03F932F9301969F938A
:101B50008F930E94E61A0FB6F894DEBF0FBECDBF7A
:101B6000039709F05CCA8F89988D0197988F8F8BA6
:101B7000498D5A8D20E04038510524F0252F206CE6
:101B8000298321E0E1E0F0E0EC0FFD1FE20FF11D01
:101B90004083E1E0E20F41E050E04C0F5D1F4E0F4B
:101BA000511DFA01937094519083E2E0E20FA1E09D
:101BB000B0E0AC0FBD1FAE0FB11DFD018083E3E0AF
:101BC000E20F41E050E04C0F5D1F4E0F511DFA0136
:101BD0008D8980832C5F2CCDE090DE01F090DF01B9
:101BE0009E012B5E3F4F3F932F932E5F3F4F3F93BE
:101BF0002F932E5F3F4F3F932F932E5F3F4F3F9387
:101C00002F9327E531E03F932F9301969F938F9376
:101C10000E94E61A0FB6F894DEBF0FBECDBF049740
:101C200009F0FDC9098D1A8D015011091A8F098F0C
:101C30008D899E8962E070E00E94501AFC019E8BA3
:101C40008D8B8F89988D68E070E00E94501A8F8B81
:101C5000988F4B8D5C8D20E04038510524F0952FF6
:101C6000906C998321E0A1E0B0E0AC0FBD1FA20F02
:101C7000B11D4C93A1E0A20F41E050E04C0F5D1F5D
:101C80004A0F511DDA01912F937098519C93A2E055
:101C9000A20F41E050E04C0F5D1F4A0F511DDA01C9
:101CA0000C93A3E0A20F41E050E04C0F5D1F4A0FE0
:101CB000511DDA017E96EE0FEE0FEE0FE80FEC935A
:101CC00089CFE090DC01F090DD019E012B5E3F4F5B
:101CD0003F932F932E5F3F4F3F932F932C5F3F4FA8
:101CE0003F932F93225031093F932F9327E531E003
:101CF0003F932F9301969F938F930E94E61A0FB6FE
:101D0000F894DEBF0FBECDBF049709F088C9898D56
:101D10009A8D01979A8F898FC7010E949A04B82ED5
:101D20000E945A046C01998D8A8D8370845889832E
:101D30009A838B8D8B8301E010E023E030E0AE01CD
:101D40004F5F5F4F61E070E0C7010E943E01B60146
:101D5000C7010E94E004811118C08A8D83708C58DD
:101D6000898323E030E0AE014F5F5F4F61E070E0B8
:101D7000C7010E943E01B601C7010E94E004811123
:101D800004C08FEF9FEF9C8F8B8F83E191E00E94C7
:101D900059036AE070E08F89988D0E94040681E102
:101DA00091E00E9459036AE070E08D899E890E944B
:101DB00004068FE091E00E945903898D9A8D6AE0B4
:101DC00070E001960E9404068DE091E00E945903A4
:101DD0006AE070E08B8D9C8D0E9404068BE091E0A0
:101DE0000E945903BB2009F41AC960E08BE00E94ED
:101DF000E60315C9E090DC01F090DD019E012B5E49
:101E00003F4F3F932F932E5F3F4F3F932F932C5F76
:101E10003F4F3F932F932E5F3F4F3F932F9324507D
:101E200031093F932F9324E531E03F932F9301969F
:101E30009F938F930E94E61A0FB6F894DEBF0FBEF1
:101E4000CDBF059709F0EBC8898D9A8D01979A8FC0
:101E5000898FC7010E949A04B82E0E945A046C010F
:101E60008B8D9C8D62E070E00E94501A9C019C8FCB
:101E70008B8F8D8D9E8D68E070E00E94501A8D8F43
:101E80009E8F498D9A8D9370985899834A83225ECC
:101E90003F4F220F220F220F280F2B8301E010E06B
:101EA00023E030E0AE014F5F5F4F61E070E0C701BB
:101EB0000E943E01B601C7010E94E004811117C0D3
:101EC0008B818F7E8B8323E030E0AE014F5F5F4FCD
:101ED00061E070E0C7010E943E01B601C7010E94A7
:101EE000E004811104C08FEF9FEF9C8F8B8F80E205
:101EF00091E00E9459036AE070E08F89988D0E94FA
:101F000004068EE191E00E9459036AE070E08D8939
:101F10009E890E9404068CE191E00E945903898DFC
:101F20009A8D6AE070E001960E9404068AE191E0D1
:101F30000E9459036AE070E08D8D9E8D0E94040618
:101F400088E191E00E9459036AE070E08B8D9C8DDE
:101F50000E94040686E191E043CFC090DC01D0905E
:101F6000DD019E012B5E3F4F3F932F932E5F3F4F2E
:101F70003F932F932E5F3F4F3F932F9320E931E004
:101F80003F932F9301969F938F930E94E61A0FB66B
:101F9000F894DEBF0FBECDBF039709F040C8898D0E
:101FA0009A8D01979A8F898F9370985899838A8315
:101FB000C6010E949A04782E0E945A045C01F12CFA
:101FC000E12C912C812C212C312C2101239488EEA1
:101FD000880D8B8303E010E022E030E042ED51E019
:101FE00070E060E0C6010E943E0101E010E023E0E5
:101FF00030E0AE014F5F5F4F61E070E0C6010E94CC
:102000003E01B501C6010E94E004B201A101082C05
:1020100004C0440F551F661F771F0A94D2F7882308
:1020200009F45FC0E42AF52A3FEF831A930A48E0D7
:102030008416910461F68A8D83708C588983EB82B3
:1020400003E010E022E030E042ED51E070E060E0BB
:10205000C6010E943E0101E010E023E030E0AE0145
:102060004F5F5F4F61E070E0C6010E943E01B50125
:10207000C6010E94E004811103C0EE24EA94FE2C04
:102080008BE291E00E9459036AE070E08F89988D9D
:102090000E94040689E291E00E9459036AE070E020
:1020A0008D899E890E94040687E291E00E9459036F
:1020B000898D9A8D6AE070E001960E94040685E29F
:1020C00091E00E9459036AE070E0C7010E94040693
:1020D00083E291E00E945903772011F40C940F08D9
:1020E00084CE40955095E422F5229ECF61E08BE0AE
:1020F0000E94E60361E083E00E94E60387EC91E042
:102100000E9459030C940F0861E08BE00E94E603E3
:102110008DEB91E0F5CF60E08BE00E94E60360E09C
:1021200083E00E94E60388EB91E0EACF89EA91E040
:1021300037C98CE991E06FC9BC016F5F7F4F809117
:10214000DE019091DF010E9487070C940F08BC010B
:102150006F5F7F4F8091DC019091DD01F4CF8BE7C1
:1021600091E00E9459038091EA029091EB028E0166
:102170000F5F1F4F0097D9F5C8018E5E92409A837A
:1021800089836AE070E089819A810E94040689E768
:1021900091E00E9459036AE070E08091CE01909135
:1021A000CF010E94040687E791E00E9459036AE08C
:1021B00070E08091EE029091EF020E94040685E7A4
:1021C00091E00E9459036AE070E08091EA029091E8
:1021D000EB020E94040683E791E00E9459036AE043
:1021E00070E0C8010E94040681E791E089CF980160
:1021F000281B390BE091EC02F091ED0290E080E0B9
:10220000309749F0029640815181840F951F0280DA
:10221000F381E02DF5CF820F931FB1CF84E591E0DC
:102220000E945903F8018085837060E170E090E0BE
:102230000E94040682E591E00E9459030E9469070A
:10224000065F1F4F0C94D1080E94690783E691E056
:102250000E948106E091DC01F091DD018385948587
:102260006AE070E00E94040680E791E00E94810627
:10227000E091DC01F091DD01818992896AE070E0F2
:102280000E9404068EE791E00E948106E091DC0145
:10229000F091DD01858596856AE070E00E94040674
:1022A00085E391E00E94B30583E491E00E94790701
:1022B000E091DC01F091DD01078110853DECE32E1A
:1022C0003CECF32EC090DC01D090DD01D6011D96D0
:1022D0008D919C918017910708F468C081E491E08A
:1022E0000E945903F601878190859801281B390BBC
:1022F000C901959587956AE070E0AC014E9DC001DB
:102300004F9D900D5E9D900D11240E9404068EE35A
:1023100091E00E9459036AE070E0C8010E9404063F
:102320008CE391E00E9459036AE070E0D8011996AD
:102330008C910E947A068AE391E00E945903680119
:10234000F8018185982F977021E030E011F430E09A
:1023500020E0869586958695820F932F911D960194
:10236000201B310B2817390764F460E170E0D601B7
:102370008D916D010E947A0688E391E00E945903D5
:10238000DFCF85E391E00E945903F80180858370D7
:1023900060E170E090E00E94040683E391E00E9417
:1023A00059030E946907065F1F4F8CCF0E9469077F
:1023B0000C940F080091DE011091DF0180E391E0A1
:1023C0000E945903D8018D919C916AE070E00E94AF
:1023D00004068EE291E094CE81E02F89388D1216AA
:1023E00013060CF080E0F80182831F928F938381A3
:1023F0001F928F9387818F9386818F938EE891E0D0
:102400009F938F939E012F5F3F4F79013F932F93AF
:102410000E94C31AC7010E94DD0782E391E00E9477
:1024200081066AE070E0D80114968D919C910E941B
:1024300004060FB6F894DEBF0FBECDBFD8011296CA
:102440008C918111C5C98AE291E0C4C90E948806B5
:102450000C940F082E173F0709F0FBC98093CE019B
:102460009093CF01CF010E94FB17DBC981E02D893A
:102470003E89121613060CF080E0F8018283668113
:102480006170682785810E94E60387E291E00E94DF
:1024900081066AE070E0D80113968D919C910E94AC
:1024A0000406F8018281CDCF2E173F0709F067CAD5
:1024B0008093D0019093D101D5CF0E9488060C94CF
:1024C0000F080E9488060C940F082E173F0709F08A
:1024D000CECA8093070290930802C4CF1F920F9236
:1024E0000FB60F9211242F933F934F935F936F93E7
:1024F0007F938F939F93AF93BF93EF93FF9389E065
:1025000092E00E94EA02FF91EF91BF91AF919F91FB
:102510008F917F916F915F914F913F912F910F908C
:102520000FBE0F901F9018951F920F920FB60F922B
:1025300011242F938F939F93EF93FF93E0911902B0
:10254000F0911A028081E0911F02F091200282FD39
:102550001BC09081809122028F5F8F732091230294
:10256000821741F0E0912202F0E0E75FFD4F958F86
:1025700080932202FF91EF919F918F912F910F9065
:102580000FBE0F901F9018958081F4CF1F920F926D
:102590000FB60F9211242F933F938F939F93AF9376
:1025A000BF938091FF0190910002A0910102B09130
:1025B00002023091D50123E0230F2D3758F5019603
:1025C000A11DB11D2093D5018093FF0190930002BE
:1025D000A0930102B09302028091D6019091D7019D
:1025E000A091D801B091D9010196A11DB11D809390
:1025F000D6019093D701A093D801B093D901BF9190
:10260000AF919F918F913F912F910F900FBE0F909F
:102610001F90189526E8230F0296A11DB11DD2CF59
:102620001F920F920FB60F9211242F933F938F9307
:102630009F93AF93BF93EF93FF939091CD02E0915F
:10264000C502F091C6028185981781F18091C5027B
:102650009091C602A091CD02E091CD02A695A695DB
:10266000A695A80FB92FB11DE770F0E0E75FFE4F08
:102670008C9190818923B1F481E387BD88E188BD85
:102680008091CD028F5F8093CD02FF91EF91BF913A
:10269000AF919F918F913F912F910F900FBE0F900F
:1026A0001F9018958CE187BD8EE0E9CFE091C502BF
:1026B000F091C60280858D7F80878091BD029091C8
:1026C000BE02A091BF02B091C0020196A11DB11D32
:1026D0008093BD029093BE02A093BF02B093C0024C
:1026E0001092CD028091CE02811137C08091C90233
:1026F0009091CA02892B09F442C08091C90290913D
:10270000CA029093C6028093C5021092CA02109228
:10271000C902E091C502F091C602808580FF15C014
:102720002091C5023091C6028091C7029091C802E3
:1027300028173907C9F18091C5029091C6020A96FF
:102740009093C6028093C50281CFE091C502F091BB
:10275000C60280858260808779CF2091C502309142
:10276000C6028091C1029091C2022817390709F070
:10277000BDCF8091CE0281508093CE02CACF2091EE
:10278000C5023091C6028091C7029091C8022817F5
:10279000390799F08091C5029091C6020A969093EC
:1027A000C6028093C502B5CF8091C1029091C2024A
:1027B0009093C6028093C502BECF8091C1029091D2
:1027C000C2029093C6028093C502E4CF1F920F927B
:1027D0000FB60F9211242F933F938F939F93AF9334
:1027E000BF93EF93FF939091E502E091DD02F091AA
:1027F000DE0281859817E9F18091DD029091DE0279
:10280000A091E502E091E502A695A695A695A80FF0
:10281000B92FB11DE770F0E0E75FFE4F8C9190811A
:102820008923F1F48FE79CE09093890080938800DE
:102830008FE396E090938B0080938A008091E5026D
:102840008F5F8093E502FF91EF91BF91AF919F91D0
:102850008F913F912F910F900FBE0F901F90189561
:102860008FE397E090938900809388008FE993E04D
:10287000E1CFE091DD02F091DE0280858D7F8087DF
:102880008091D5029091D602A091D702B091D80242
:102890000196A11DB11D8093D5029093D602A093FD
:1028A000D702B093D8021092E5028091E60281111E
:1028B00037C08091E1029091E202892B09F442C075
:1028C0008091E1029091E2029093DE028093DD021A
:1028D0001092E2021092E102E091DD02F091DE023C
:1028E000808580FF15C02091DD023091DE0280914D
:1028F000DF029091E00228173907C9F18091DD02CB
:102900009091DE020A969093DE028093DD0274CFEE
:10291000E091DD02F091DE028085826080876CCFDD
:102920002091DD023091DE028091D9029091DA028D
:102930002817390709F0BDCF8091E60281508093B6
:10294000E602CACF2091DD023091DE028091DF02E3
:102950009091E0022817390799F08091DD0290915B
:10296000DE020A969093DE028093DD02B5CF80915D
:10297000D9029091DA029093DE028093DD02BECFFD
:102980008091D9029091DA029093DE028093DD0269
:10299000E4CFCF92DF92EF92FF920F931F93CF93EA
:1029A000DF93EC014A83798368831B821C821D823A
:1029B0001E828B010F5F1F4F6AE070E0C8010E940A
:1029C000A01A7C0198878F8362E070E0C8010E94A2
:1029D000A01A6C019A87898761E070E0C8010E94A3
:1029E000A01A9F8B8E8BFC86EB86F601F182E0822B
:1029F000FE86ED86188A1F861A8A198A1B8A1C8A07
:102A00001D8ADF91CF911F910F91FF90EF90DF9082
:102A1000CF900895E9E0F2E01382128288EE93E00D
:102A2000A0E0B0E084839583A683B78385E191E03D
:102A30009183808385EC90E09587848784EC90E097
:102A40009787868780EC90E0918B808B81EC90E07B
:102A5000938B828B82EC90E0958B848B86EC90E05C
:102A6000978B868B118E128E138E148E40E064E647
:102A700070E082ED92E00E94C91441E062E070E0F3
:102A80008AEB92E00E94C914E0EBF2E083E090E070
:102A9000918380838EE090E09383828389E991E043
:102AA000918780871482158216821782E6EAF2E007
:102AB0008BE090E0918380838FE090E0938382832A
:102AC0008EE991E0918780871482158216821782A1
:102AD0000895789484B5826084BD84B5816084BD96
:102AE00085B5826085BD85B5816085BD80916E00AC
:102AF000816080936E0010928100809181008260DD
:102B00008093810080918100816080938100809119
:102B100080008160809380008091B1008460809308
:102B2000B1008091B00081608093B00080917A0004
:102B3000846080937A0080917A00826080937A002A
:102B400080917A00816080937A0080917A00806819
:102B500080937A001092C100E0911902F0911A025C
:102B600082E08083E0911502F09116021082E091DC
:102B70001702F091180280E1808310922102E09107
:102B80001D02F0911E0286E08083E0911B02F0910D
:102B90001C02808180618083E0911B02F0911C0205
:102BA000808188608083E0911B02F0911C0280810B
:102BB00080688083E0911B02F0911C0280818F7DF0
:102BC000808389E092E00E94740360E083E10E94C8
:102BD000140461E083E10E94E60383E10E94BD03E7
:102BE000892B29F483EA91E00E948106FFCF82EDD0
:102BF00092E09093DF018093DE018AEB92E0909364
:102C0000DD018093DC0180EB92E09093DB01809307
:102C1000DA011092E0010E94380660E08CE00E9428
:102C2000140460E08CE00E94E60361E08AE00E9408
:102C300014048091800081608093800080918000E6
:102C40008260809380008091810088608093810001
:102C500080918100806180938100809180008062FA
:102C600080938000809180008061809380008091BB
:102C700081008B7F80938100809181008D7F809384
:102C80008100809181008160809381008FE397E0D3
:102C900090938900809388008FE993E090938B0054
:102CA00080938A0061E083E00E94140410E000E059
:102CB00022E030E040E051E061E070E082ED92E03F
:102CC0000E943E0180916F00846080936F0060E0FD
:102CD0008DE00E94140460E08DE00E94E60361E054
:102CE00085E00E94140484B5816084BD84B582604F
:102CF00084BD85B5886085BD84B5806284BD84B59A
:102D0000806184BD85B58B7F85BD85B5826085BDBD
:102D100085B5816085BD8CE187BD8EE088BD61E0B1
:102D20008BE00E94140422E030E040E051E061E0DA
:102D300070E08AEB92E00E943E0180916E00846018
:102D400080936E0080EEE82E81E0F82EDD24D3948F
:102D500000E010E089E092E00E94CA02181619060D
:102D6000F4F489E092E00E94A8028C3319F41092E6
:102D7000E001F0CF8E3329F480EE91E00E94DD0770
:102D8000E9CFF70101900020E9F7E15EF140EE3173
:102D900008F7FF27E052FE4F80831182DBCF2FB769
:102DA000F8948091FF0190910002A0910102B091EE
:102DB00002022FBF4091030250910402609105026C
:102DC000709106024C015D01841A950AA60AB70AA1
:102DD000B501A401443151056105710580F080936E
:102DE000030290930402A0930502B093060280EBC5
:102DF00092E00E94D20686EA92E00E94D206C0913A
:102E00000702D0910802209709F44DC02CEE31E55D
:102E100048E75FE36D817E818F8198850E94E31989
:102E20004B015C018A810E94BD03BC01990F880B94
:102E3000990B0E942E192FE832EC45EF5CE30E94BB
:102E4000E319A50194010E9485186D837E838F8309
:102E500098872C8121111BC020E030E040E05FE327
:102E60000E94F11887FF0FC0DC828AE491E00E9483
:102E700081066AE070E0888199810E9404068CE2F4
:102E800091E00E9481060984DA85C02DBCCF26E638
:102E900036E646E65FE30E94DE191816A4F71C82A8
:102EA0008DE491E0E4CF0115110509F453CF0E94A0
:102EB000D602882309F44ECF0E9400004BCF0F9317
:102EC0001F93CF93DF938230910510F482E090E05E
:102ED000E091EC02F091ED0230E020E0B0E0A0E003
:102EE000309799F42115310509F44AC0281B390B94
:102EF00024303105D8F58A819B816115710589F1EE
:102F0000FB0193838283FE0111C0408151810281C4
:102F1000138148175907E0F04817590799F410979B
:102F200061F012960C93129713961C933296CF0170
:102F3000DF91CF911F910F9108950093EC021093B0
:102F4000ED02F4CF2115310551F04217530738F047
:102F5000A901DB019A01BD01DF01F801C1CFEF0139
:102F6000F9CF9093ED028093EC02CDCFFE01E20FFA
:102F7000F31F819391932250310939832883D7CF4E
:102F80002091EA023091EB02232B41F420910501BC
:102F9000309106013093EB022093EA022091030165
:102FA000309104012115310541F42DB73EB7409110
:102FB000070150910801241B350BE091EA02F091C2
:102FC000EB02E217F307A0F42E1B3F0B281739077B
:102FD00078F0AC014E5F5F4F2417350748F04E0F75
:102FE0005F1F5093EB024093EA02819391939FCF2E
:102FF000F0E0E0E09CCFCF93DF930097E9F0FC0195
:10300000329713821282A091EC02B091ED02ED0191
:1030100030E020E01097A1F420813181820F931FCE
:103020002091EA023091EB022817390709F061C0BC
:10303000F093EB02E093EA02DF91CF910895EA0169
:10304000CE17DF07E8F54A815B819E0141155105E6
:10305000B1F7E901FB83EA8349915991C40FD51F68
:10306000EC17FD0761F4808191810296840F951F12
:10307000E90199838883828193819B838A83F0E02D
:10308000E0E012968D919C9113970097B9F52D91E0
:103090003C911197CD010296820F931F2091EA0275
:1030A0003091EB022817390739F6309751F5109215
:1030B000ED021092EC02B093EB02A093EA02BCCFB7
:1030C000D383C28340815181840F951FC817D907CC
:1030D00061F44E5F5F4F88819981480F591F51837A
:1030E00040838A819B81938382832115310509F076
:1030F000B0CFF093ED02E093EC029ECFFD01DC0136
:10310000C0CF13821282D7CF5058BB27AA270E9464
:103110009C180C94A4190E94961938F00E949D19CD
:1031200020F039F49F3F19F426F40C9493190EF40F
:10313000E095E7FB0C948D19E92F0E94B51958F31F
:10314000BA17620773078407950720F079F4A6F58C
:103150000C94D7190EF4E0950B2EBA2FA02D0B016D
:10316000B90190010C01CA01A0011124FF27591BCC
:1031700099F0593F50F4503E68F11A16F040A22FD2
:10318000232F342F4427585FF3CF46953795279543
:10319000A795F0405395C9F77EF41F16BA0B620B42
:1031A000730B840BBAF09150A1F0FF0FBB1F661F89
:1031B000771F881FC2F70EC0BA0F621F731F841FCC
:1031C00048F4879577956795B795F7959E3F08F0F2
:1031D000B0CF9395880F08F09927EE0F97958795B4
:1031E00008950E94691908F481E008950E94FD186D
:1031F0006894B1110C94D81908950E94BD1988F0F3
:103200009F5798F0B92F9927B751B0F0E1F0660FAA
:10321000771F881F991F1AF0BA95C9F714C0B130EB
:1032200091F00E94D719B1E008950C94D719672F37
:10323000782F8827B85F39F0B93FCCF3869577951A
:103240006795B395D9F73EF4909580957095619503
:103250007F4F8F4F9F4F0895E89409C097FB3EF42E
:1032600090958095709561957F4F8F4F9F4F9923D3
:10327000A9F0F92F96E9BB279395F6958795779551
:103280006795B795F111F8CFFAF4BB0F11F460FF11
:103290001BC06F5F7F4F8F4F9F4F16C0882311F069
:1032A00096E911C0772321F09EE8872F762F05C07D
:1032B000662371F096E8862F70E060E02AF09A9518
:1032C000660F771F881FDAF7880F9695879597F90D
:1032D0000895990F0008550FAA0BE0E8FEEF1616A7
:1032E0001706E807F907C0F012161306E407F507FA
:1032F00098F0621B730B840B950B39F40A2661F06E
:10330000232B242B252B21F408950A2609F4A14010
:10331000A6958FEF811D811D089597F99F6780E81D
:1033200070E060E008959FEF80EC089500240A9417
:103330001616170618060906089500240A94121690
:103340001306140605060895092E0394000C11F4C3
:10335000882352F0BB0F40F4BF2B11F460FF04C070
:103360006F5F7F4F8F4F9F4F089557FD9058440FC9
:10337000551F59F05F3F71F04795880F97FB991FD4
:1033800061F09F3F79F08795089512161306140691
:10339000551FF2CF4695F1DF08C01616170618061E
:1033A000991FF1CF86957105610508940895E894F9
:1033B000BB2766277727CB0197F908950E946919E3
:1033C00008F48FEF08950E94F6190C94A4190E9436
:1033D000961938F00E949D1920F0952311F00C9455
:1033E0008D190C94931911240C94D8190E94B519B5
:1033F00070F3959FC1F3950F50E0551F629FF00148
:10340000729FBB27F00DB11D639FAA27F00DB11D60
:10341000AA1F649F6627B00DA11D661F829F2227E9
:10342000B00DA11D621F739FB00DA11D621F839F70
:10343000A00D611D221F749F3327A00D611D231F46
:10344000849F600D211D822F762F6A2F11249F5794
:1034500050409AF0F1F088234AF0EE0FFF1FBB1F97
:10346000661F771F881F91505040A9F79E3F510556
:1034700080F00C948D190C94D8195F3FE4F3983EBA
:10348000D4F3869577956795B795F795E7959F5F00
:10349000C1F7FE2B880F911D9695879597F9089592
:1034A00097FB072E16F4009407D077FD09D00E94F1
:1034B000861A07FC05D03EF4909581959F4F08959C
:1034C000709561957F4F0895A1E21A2EAA1BBB1B30
:1034D000FD010DC0AA1FBB1FEE1FFF1FA217B307E0
:1034E000E407F50720F0A21BB30BE40BF50B661FF6
:1034F000771F881F991F1A9469F7609570958095BA
:1035000090959B01AC01BD01CF010895AA1BBB1B87
:1035100051E107C0AA1FBB1FA617B70710F0A61BD3
:10352000B70B881F991F5A95A9F780959095BC01F4
:10353000CD010895EE0FFF1F0590F491E02D099441
:103540000F931F93CF93DF93869F8001879F100D6A
:10355000969F100D1124C8010E945F17EC0100977F
:1035600029F0A80170E060E00E94BC1ACE01DF9152
:10357000CF911F910F910895DC0101C06D934150CF
:103580005040E0F70895AEE0B0E0E9ECFAE10C94C9
:1035900086200D891E8986E08C831A8309838FEF2C
:1035A0009FE79E838D83AE01475E5F4F6F89788D65
:1035B000CE0101960E94FF1A2F813885020F131F3A
:1035C000F80110822E96E4E00C94A220AEE0B0E068
:1035D000ECEEFAE10C94882085E08C838B899C8941
:1035E0009A838983AE01495E5F4F6D897E89CE01E2
:1035F00001960E94641E2E96E2E00C94A420ABE09B
:10360000B0E0E5E0FBE10C9478207C013B018A010D
:10361000FC0117821682838181FFC8C1CE01019609
:103620005C01F7019381F30193FD859193FF8191F3
:103630003F01882309F453C1853239F493FD859104
:1036400093FF81913F01853229F4B70190E00E94F8
:10365000CF1FE7CF912C212C312CFFE1F31538F04F
:103660008B3211F190F4803209F1833229F137FC69
:103670003CC020ED280F2A3050F536FE20C08AE0ED
:10368000989E200D1124922E06C08D3291F0803329
:1036900071F7689430F8F30193FD859193FF819160
:1036A0003F018111DACF21C0689431F8689432F873
:1036B000F2CF689433F8EFCF689434F8ECCFEAE0B7
:1036C0002E9E200D1124222E689435F8E4CF8E32E0
:1036D00029F436FC04C1689436F8DDCF8C3619F431
:1036E000689437F8D8CF8836B1F2982F9F7D9554DB
:1036F0009330E0F08336A1F18337C1F1833509F0CF
:1037000063C02801F2E04F0E511CF801C080D18047
:10371000692D70E036FC02C06FEF7FEFC6010E949A
:103720007D1F4C01689437F882010AC00C5F1F4F5F
:10373000FFE3F98388248394912C6501E89437F89A
:1037400033FE2DC0522C8114910471F5552009F4DB
:1037500068CFB70180E290E00E94CF1F5A94F6CF65
:10376000F801808189830E5F1F4FE4CF2801F2E0CA
:103770004F0E511CF801C080D180692D70E036FCDD
:1037800002C06FEF7FEFC6010E94881F4C018201CB
:10379000D5CFB70180E290E00E94CF1F2A94281471
:1037A000190409F0B0F7CECFF60137FC859137FE4A
:1037B00081916F01B70190E00E94CF1F51105A9480
:1037C000F1E08F1A9108BFCF843619F0893609F0DD
:1037D00077C0F80137FE6BC060817181828193816F
:1037E0000C5F1F4FF32DFF763F2E97FF09C090957A
:1037F0008095709561957F4F8F4F9F4F689437F8F4
:103800002AE030E0A5010E941720C82ECA188C2C8F
:10381000432C36FE0CC0E89440F8C91440F434FE42
:1038200005C032FC03C0F32DFE7E4F2E892C44FED2
:1038300095C0FE01EC0DF11D8081803309F087C039
:10384000242D297E422E842D8870582E43FC95C04D
:1038500040FE8FC09C2C821418F42C0C922C9818CB
:1038600044FE91C0B70180E390E00E94CF1F42FE6A
:1038700009C088E790E041FE02C088E590E0B7010A
:103880000E94CF1FC91408F48AC0CA94D12C9FEF9C
:10389000C91AD90ACA0CDB1CF60182916F01B70163
:1038A00090E00E94CF1FAC14BD04B1F74FCF6081F0
:1038B0007181072E000C880B990B0E5F1F4F92CF62
:1038C000D32CE894D4F82AE030E0853739F1232D61
:1038D000297FD22E8F3601F148F48835A9F0F701FF
:1038E000868197812B96E2E10C949420803749F0F1
:1038F0008837A9F7D4FE02C06894D2F820E130E0FE
:103900000DC06894D4F8F6CF34FE03C0822F8660D1
:10391000D82E20E132E002C028E030E0F801D7FEE6
:103920000FC060817181828193810C5F1F4FA5015F
:103930000E941720C82ECA183D2CE89437F867CF8C
:103940006081718190E080E00E5F1F4FF0CF42FCFC
:1039500002C0839478CF8394839475CF842D867826
:1039600009F471CFF6CFB70180E290E00E94CF1F3B
:1039700083948214C0F3512C73CF522C58188214A4
:1039800008F46ECFF8CF842D867809F47BCF8BE2D4
:1039900041FE80E247FC8DE2B70190E071CFB701B4
:1039A00080E390E00E94CF1F9A946CCF8FEF9FEF3F
:1039B00099CF20FD09C0FC0123FD05C022FF02C0F4
:1039C0007383628351834083089544FD17C046FD8D
:1039D0001DC0DB01FC01AA0FBB1FEE1FFF1F1094CF
:1039E000D1F76A0F7B1F8E1F9F1F660F771F881FDF
:1039F000991F620F711D811D911D089533E0660F9F
:103A0000771F881F991F3150D1F7F3CF34E0F7CFDC
:103A10000F931F93CF93DF938C01C8010E94931FD4
:103A2000EC0197FD08C00E94691F892BB1F7B8010E
:103A3000CE010E94FF1FCE01DF91CF911F910F9108
:103A400008958F929F92AF92BF92EF92FF920F9341
:103A50001F93CF93DF938C01D62F7A01B22E0E9451
:103A6000931F9C0133272B32310529F02D3231056C
:103A7000A9F46894B7F8D15061F480E0DF91CF9158
:103A80001F910F91FF90EF90BF90AF909F908F90FC
:103A90000895C8010E94931F97FDEFCFCB2DCD7FD6
:103AA0002B2D2073F9F48033E9F4AA24AA94AD0EE7
:103AB00089F0C8010E94931F97FD0CC0282F2F7D0D
:103AC000283561F4C264D25029F0C8010E94931FC6
:103AD00097FF08C0812C912C54011BC0B6FE2BC04F
:103AE000C260DA2D812C912C540120ED280F283052
:103AF00028F1C4FD09C02A3008F1C6FF05C02F7D9A
:103B00003FEE320F3630C8F0B8010E94FF1FC1FFF0
:103B1000B4CFC7FF08C0B094A09490948094811C47
:103B2000911CA11CB11C2C2FB501A401C7010E943E
:103B3000D91C81E0A3CFC261D4CF27504C2FC5013F
:103B4000B4010E94E51C4B015C01C260D15009F335
:103B5000C8010E94931F97FFC8CFD9CFA0E2B0E061
:103B6000E4EBFDE10C947D205C01962E7A01CE0100
:103B700001966C0180E2F60111928A95E9F7F50150
:103B8000B381890130E020E0712C812CA0E041E07C
:103B900050E0F801B3FD8591B3FF8191982F8F011B
:103BA000811107C010E000E0C801A096EDE00C9480
:103BB00099208E3519F42115310541F1A21713060C
:103BC0004CF48D3549F18D3229F4811006C08824DA
:103BD00083941DC0882009F464C0E92FE695E6951A
:103BE000E695EC0DFD2DF11D892F8770BA0101C0FE
:103BF000660F8A95EAF78081682B6083791651F009
:103C0000971510F49F5FE9CF9150E7CFA1E02F5FA8
:103C10003F4FBFCF812CFBCF882019F08E8180626F
:103C20008E83AA2359F0F6019E012F5D3F4F8081BC
:103C3000809580833196E217F307C9F7882483942F
:103C4000C5010E94931F97FD16C0E82FE695E695E3
:103C5000E695EC0DFD2DF11D208130E0AC014770A3
:103C6000552702C0359527954A95E2F720FD06C0F5
:103C7000B5010E94FF1F882069F094CFE114F10480
:103C800029F0F7018083C70101967C019A94812C69
:103C90009110D6CFE114F10409F486CFF701108218
:103CA00083CFE82FE695E695E695EC0DFD2DF11D09
:103CB000982F9770BA0101C0660F9A95EAF7908124
:103CC000692B6083782EA3CFB0E0A0E0EAE6FEE1A6
:103CD0000C947B206C01EB015A01FC0117821682C7
:103CE000512CF601E380FE01E3FC8591E3FE819116
:103CF000182FEF018823E9F090E00E94691F892BBB
:103D000021F0C6010E94081DECCF153241F4FE01DE
:103D1000E3FC1591E3FE1191EF01153269F4C60140
:103D20000E94931F97FD8EC01817D9F2B6010E940A
:103D3000FF1F852D90E08AC000E01A3231F4E3FCC9
:103D40001591E3FE1191EF0101E0F12C20ED210F1F
:103D50002A3048F101FF37C0FF2059F31836B1F17E
:103D60001C3609F43DC0112321F3612F70E088E671
:103D700090E00E94721F892BE1F2912C812C00FDB2
:103D800006C0F50180809180C50102965C011E3657
:103D900079F5F6014681578170E060E0202FC4017B
:103DA0000E94D91C9ECF02606F2D70E090E080E0F1
:103DB00040E20E94E51CF62EFE01E3FC1591E3FEB5
:103DC0001191EF01C3CFFF24FA94C8CFFE01E3FCA9
:103DD0001591E3FE1191EF01183609F0C4CF086088
:103DE0000460FE01E3FC1591E3FE1191EF01BBCFEE
:103DF0001336C1F401FD02C0FF24F394C6010E94F2
:103E0000931F97FD1FC08114910429F0F401808352
:103E1000C40101964C01FA94F110F0CF00FD61CF7E
:103E200053945FCF1B35B9F49E01A4016F2DC601D9
:103E30000E94AE1DEC01892B89F7F6018381807306
:103E400009F477CF8FEF9FEF511073CFCDB7DEB767
:103E5000EFE00C949720C6010E94081D97FDF2CF59
:103E60001F36A9F130F4143641F0193639F00064E8
:103E700005C01337B9F01537D1F70062202FA40120
:103E80006F2DC6010E94211D8111C8CFD6CF81148C
:103E9000910429F0F4016082C40101964C01FA9466
:103EA000FF2071F0C6010E94931F3C0197FD08C0DE
:103EB0000E94691F892B59F3B601C3010E94FF1F9D
:103EC0008114910409F4AACFF4011082A7CF0061F4
:103ED000D5CF91110C947520803219F089508550FE
:103EE000C8F70895FC010590061621F00020D9F7C7
:103EF000C00108953197CF010895FC0105906150EC
:103F000070400110D8F7809590958E0F9F1F0895EF
:103F1000FC016150704001900110D8F78095909598
:103F20008E0F9F1F0895CF93DF93EC012B8120FF0D
:103F30001AC026FF0CC02F7B2B838E819F81019698
:103F40009F838E838A8190E0DF91CF91089522FF35
:103F500018C0E881F9818081082E000C990B009728
:103F600029F420622B838FEF9FEFEECF3196F983F8
:103F7000E8832E813F812F5F3F4F3F832E83992718
:103F8000E3CFEA85FB85099597FFF3CF2B81019657
:103F900021F080E2822B8B83E6CF80E1FBCF0F9371
:103FA0001F93CF93DF93182F092FEB018B8181FD96
:103FB00009C01FEF0FEF812F902FDF91CF911F913D
:103FC0000F91089582FF14C02E813F818C819D81C5
:103FD000281739073CF4E881F981CF0101969983CC
:103FE000888310838E819F8101969F838E83E3CF88
:103FF000E885F985812F0995892BA1F3DACFFB019B
:10400000238120FF11C026FD0FC08F3F980771F05C
:1040100082832F7D206423832681378121503109BB
:1040200037832683992708958FEF9FEF0895FA012C
:10403000AA27283051F1203181F1E8946F936E7FE7
:104040006E5F7F4F8F4F9F4FAF4FB1E03ED0B4E0D8
:104050003CD0670F781F891F9A1FA11D680F791F19
:104060008A1F911DA11D6A0F711D811D911DA11D2A
:1040700020D009F468943F912AE0269F112430193A
:10408000305D3193DEF6CF010895462F4770405DD5
:104090004193B3E00FD0C9F7F6CF462F4F70405D84
:1040A0004A3318F0495D31FD4052419302D0A9F7DF
:1040B000EACFB4E0A6959795879577956795BA95D9
:1040C000C9F700976105710508959B01AC010A2E9F
:1040D00006945795479537952795BA95C9F7620F76
:1040E000731F841F951FA01D089599278827089581
:1040F0002F923F924F925F926F927F928F929F92F8
:10410000AF92BF92CF92DF92EF92FF920F931F93E5
:10411000CF93DF93CDB7DEB7CA1BDB0B0FB6F89496
:10412000DEBF0FBECDBF09942A88398848885F84D6
:104130006E847D848C849B84AA84B984C884DF8047
:10414000EE80FD800C811B81AA81B981CE0FD11D2B
:104150000FB6F894DEBF0FBECDBFED010895F89401
:02416000FFCF8F
:10416200FF00000000EE02800080402010080402E0
:1041720001000000000C036C0299027403CA02A839
:1041820002BC023C583E003C590020303E00203127
:104192003E003C48000D0A00256420257820257841
:1041A200202578202578202578003C51003C71009C
:1041B2003C4F3E0025642025642025642025642090
:1041C20025640063757272656E745265673A2000E9
:1041D2002072656379636C655265673A2000206DD1
:1041E20061784C6F616465645265673A20006120B2
:1041F2002564202564202564003C70323E003C701A
:10420200333E000A0A50524F4752414D2048414C1A
:10421200544544202D20504C45415345205245538E
:0E422200544152542041524455494E4F000021
:00000001FF
